:020000040800F2
:10000000E0070020C5000008112000082B1E000892
:1000100000000000000000000000000000000000E0
:100020000000000000000000000000006F22000837
:10003000000000000000000059200008CD24000846
:10004000D700000800000000D7000008D700000813
:10005000D700000879080008D7000008D70000087A
:1000600000000000D70000080D0800081D08000867
:10007000D7000008D7000008D700000800000000E3
:10008000D70000080000000000000000D7000008B2
:1000900000000000AD250008D7000008D7000008C8
:1000A00000000000D700000800000000592A0008E6
:1000B0000348854600F080F9004800472D300008CD
:1000C000E00700200448804704480047FEE7FEE7B9
:1000D000FEE7FEE7FEE7FEE751250008B100000855
:1000E00030B50B46014600202022012409E00D46D0
:1000F000D5409D4205D31D469540491B2546954058
:1001000040191546521E002DF1DC30BD10B5202AD5
:1001100004DB0846203AD040002110BD0B46D340F6
:10012000D0402024A21A91400843194610BD03462E
:100130000B439B0703D009E008C9121F08C0042A1B
:10014000FAD203E00B780370401C491C521EF9D20E
:100150007047D2B201E00270401C491EFBD27047CA
:100160000022F6E710B513460A4604461946FFF783
:10017000F0FF204610BDF8B50E460546002400E00D
:10018000641C285D00F0D0F80746305D00F0CCF824
:10019000381A02D1295D0029F2D1F8BD024670B5A6
:1001A0004A40D30FDB0740002DD04A002AD0010E71
:1001B000140E000212020919400A520A8418E501BD
:1001C00004465443000A120A2E045043A41942194B
:1001D000200CC543AA18120C0125AD03521C52195C
:1001E00012047F39240400D0521C104301D4400073
:1001F000491EC2B20C06C0092018401C4008802AC3
:1002000002D003E0002070BD40084000002900DA61
:100210000020184370BD70B502464A40D50F40001B
:100220004A00ED0740085208002814D0002A12D0D6
:10023000C40DD30D41020120C0055202490A520AE1
:10024000E41A091812187D34914201D3641C00E0AD
:100250004900002C01DA002070BD0023914201D337
:10026000891A0343400849000028F7D100290AD021
:10027000914202D10121C90705E0914201D2012139
:1002800001E00121C943E005C018401900F052F80F
:1002900070BD10B500229623114600F053F810BD32
:1002A000410040020122400AD205090E80187F2930
:1002B00001DA00207047962903DC9622511AC840C3
:1002C0007047963988407047F0B51FB40646002045
:1002D00082B005464024019100901BE0019922461E
:1002E0000F463046FFF712FF049A059B801A99418A
:1002F00010D310461946224600F070F8361A8F4186
:100300000197224601200021009F00F067F838186D
:100310004D4100902046641E0028DFDC019B0098C0
:100320002946324607B0F0BD01464139192900D8A7
:1003300020307047002904DA401C490001D14008F0
:100340004000704770B40024050C05D1102400044F
:1003500002D1002921D01124050E01D10002083458
:10036000050F01D10001241D850F01D18000A41CBF
:10037000002801DB4000641C002908D020252E1B2A
:100380000D46F540A14000D0012129430843010654
:100390001B1B000ADB1D02D5002070BC7047DB056B
:1003A000181880180029F8DA401C4900F5D170BCF3
:1003B0004008400070470000064C0125064E05E04D
:1003C000E36807CC2B430C3C98471034B442F7D376
:1003D000FFF772FE703200089032000810B5202A34
:1003E00004DB0146203A9140002010BD91402023BB
:1003F0009C1A0346E3401943904010BD0146000497
:10040000000A0902090E084370470000F8B50446C7
:10041000C8B20D4609040F0EA070290227700E0EF7
:100420006670FFF736FF0D49FFF7F5FEE0603846CE
:10043000FFF72FFF0949FFF7EEFE60603046FFF738
:1004400028FF0649FFF7E7FE2561A060FF20207521
:10045000002060750120A075F8BD000000007F43FA
:1004600070B5214CA17D2046007D012906D00229CE
:100470000AD0FF2811D2401C207510E0002801D0BE
:10048000401EF9E7022009E0607D3C2801D2401CB3
:1004900001E00020A075607501E00120A075207DBD
:1004A000FFF7F7FE0546A168FFF778FEFFF7F8FEB5
:1004B0000006060A28466168FFF770FEFFF7F0FEA7
:1004C0000006000C06432846E168FFF767FEFFF7C9
:1004D000E7FEC0B2314601430348002210382161D3
:1004E00002F07EFD70BD00000801002000B500F0A4
:1004F00085F901463039092901D8C8B200BD014645
:100500006139052902D85738C0B200BDFF2000BDAF
:10051000F8B5064654A1FFF72EFE002824D054A1BA
:100520003046FFF728FE544D544C00281ED054A1ED
:100530003046FFF720FE002836D020780227012819
:100540006AD000280DD0607800280AD0032808D887
:10055000304601F06BFC4C490860FF2109068842D7
:100560006ED101F009FF25E0484821E048A002F0E3
:10057000DDFA2868FFF742FF014649A002F0D6FAEB
:100580006868FFF73BFF01464AA002F0CFFAA8686F
:10059000FFF734FF01464CA002F0C8FA4FA002F06A
:1005A000C5FA012020705CE0A078012804D052A098
:1005B00002F0BCFA0020F8BD0026A67054A002F09C
:1005C000B5FA0020296802F07BFA0120696802F080
:1005D00077FA0220A96802F073FA50A002F0A6FA96
:1005E000002001F03BFDFFF709FF01462CA002F0BF
:1005F0009DFA012001F032FDFFF700FF01462DA01A
:1006000002F094FA022001F029FDFFF7F7FE0146FF
:100610002DA002F08BFA23E0317808463138032808
:1006200091D242A0303902F081FA47A002F07EFA5E
:1006300050A002F07BFA307830386070277010E0FC
:1006400001265749A6700F7061788A005219803AC6
:10065000D06754A0626802F069FA5FA002F066FAFF
:1006600026700120F8BD00002F68656C7000000046
:100670002F636F6C6F720000E0000020C400002048
:100680002F73617665000000D4000020FE31000861
:100690000D0A202F636F6C6F72200D0A000000009E
:1006A00020636F6C6F72313A203078253036580DE8
:1006B0000A00000020636F6C6F72323A2030782598
:1006C0003036580D0A00000020636F6C6F72333AA9
:1006D000203078253036580D0A00000020CAE4C8C2
:1006E000EB312C322C33B8C4B1E4B6D4D3A6D1D577
:1006F000C9AB0D0A000000000D0A20B5B1C7B0CE8D
:10070000DECAFDBEDDD0DEB8C4200D0A0000000048
:100710000D0A202F73617665200D0A0020CAFDBEE8
:10072000DDB1A3B4E6B3C9B9A60D0A000D0A20C411
:10073000FAD2AAB8C4B1E4B5C4CAC720636F6C6F5B
:100740007225780D0A00000020C7EBCAE4C8EBD17F
:10075000D5C9AB524742D6B52CD2D43078BFAACD3A
:10076000B72EC0FDC8E730783330333033300D0A50
:100770000D0A000020B5F7D5FBBAC3BAF3CAE4C826
:10078000EB202F7361766520C3FCC1EEC0B4B1A32A
:10079000B4E6B5B1C7B0CAFDBEDD0D0A0D0A000052
:1007A000CE00002020B5B1C7B0636F6C6F722578A2
:1007B0003A3078253036582CBFC9BCCCD0F8CAE4C2
:1007C000C8EB524742B2CECAFDB8C4B1E4D1D5C9D4
:1007D000AB0D0A0D0A00000020BBF2CAE4C8EB31E1
:1007E0002C322C33B8C4B1E4B6D4D3A6636F6C6F8B
:1007F00072B5C4D1D5C9AB0D0A000000014642391B
:10080000182901D22030C0B27047000010B502484C
:1008100000F0ECF810BD00008402002010B5024882
:1008200000F0E4F810BD00007803002010B5044685
:100830000068054940181421FFF752FC800020642D
:100840000248E06310BD0000F8FFFDBF0000024059
:1008500030B5056C0124AC40C56B6C600468636006
:100860004368102B036803D099600068C26030BDF4
:100870009A600068C16030BD10B5012000F05EFADA
:10088000022000F05BFA10BD06490020C86106484E
:100890000169042211430161016940221143016190
:1008A00070470000C003002000200240064A0021DB
:1008B000D16106490A6902231A430A61486108693D
:1008C0004022104308617047C0030020002002400E
:1008D00010B5054B0022DA61044A13690124234351
:1008E0001361018010BD0000C00300200020024001
:1008F00010B50B4A0020D168CB060A4904D5C86957
:1009000002231843C8611020D3685B0705D5CB6963
:1009100001242343CB6104210843D06010BD0000B3
:1009200000200240C003002070B5054600F0C2FA66
:100930000646104C0AE0681C08D0002D04D000F0D8
:10094000B9FA801BA84201D9032070BDE068C00736
:10095000F1D1E068800601D52020E060E068C006A3
:1009600002D4E068400703D5FFF7C2FF012070BD45
:10097000002070BD0020024001680A680E239A43DF
:100980000A6001680A68520852000A600121036C7B
:100990000A469A40C36B5A602030417000210170B2
:1009A0000846704770B50024014620314A78022A73
:1009B00003D004218163012416E0026813680E2528
:1009C000AB431360026813685B085B00136001228D
:1009D000056C1346AB40C56B6B604A7000220A7011
:1009E000416B002900D08847204670BDF0B4C16B30
:1009F0000D6801680C680422066C1346B3402B4254
:100A00000DD063070BD50B689B0602D40B6893438C
:100A10000B60016C8A40C16B4A60C16A19E0022711
:100A2000B74002462F4001232032002F15D0A707E0
:100A300013D50C68A40604D40C680A25AC430C60DA
:100A40005370036C02219940C36B596000211170EF
:100A5000816A002916D0F0BC08470827B7402F420A
:100A600010D024070ED50C680E25AC430C60046C26
:100A70001946A140C46B61608363537000211170FB
:100A8000016BE6E7F0BC704770B5040024D002208B
:100A9000214620310D464870226811680F48A3682E
:100AA0000140606826691843E3683343184363696B
:100AB0001843A3691843E3691843084310602046AC
:100AC000FFF7B4FE0020A062E06220636063A063D1
:100AD00001216970287070BD012070BD0FC0FFFF3B
:100AE000F8B504468C46203001780025012909D04C
:100AF0000126067041780027012905D007700225DC
:100B00002846F8BD0220F8BD02214170A763206885
:100B1000016849084900016061462046FFF798FED8
:100B2000E06A00282068016802D00E22114306E026
:100B30000A22114301602068016804229143016088
:100B40002068016831430160DAE731B500F0B2F99D
:100B5000009C0546601C00D0641C00F0ABF9401BF3
:100B6000A042FAD338BD0000F8B5054623480F4629
:100B7000017E012601290BD0012101762868204C35
:100B8000012807D02046FFF7CFFE002813D030E021
:100B90000220F8BD2046FFF7C7FE002829D1FFF745
:100BA00073FE2046FFF7C0FE064616480169042280
:100BB000914301611DE00020C04338606C6812E081
:100BC0002046FFF773FE0E48FFF7AEFE06460D48BF
:100BD000026902218A430261002E01D03C6008E0D4
:100BE000012080022418A868810268680818A042C1
:100BF000E6D80248002101763046F8BDC003002047
:100C000050C30000002002400348016980221143C4
:100C1000016100207047000000200240F0B51FB4C1
:100C200007461A480024017E15461E46012907D0B2
:100C3000012101761648FFF777FE002803D020E057
:100C4000022005B0F0BD012F02D0022F00D00427F2
:100C5000220128463146FFF759FA81B20198620015
:100C60001018FFF735FE0A48FFF75EFE09490A69CA
:100C7000520852000A61002803D1641CE4B2BC424D
:100C8000E6D3024900220A76DBE70000C003002019
:100C900050C300000020024005480169090605D53F
:100CA00004494160044941600020704701207047B9
:100CB0000020024023016745AB89EFCDF8B5092735
:100CC00000250126FF061B4C012811D002280ED159
:100CD000A07803280BD00221384600F0DFF8002866
:100CE000F9D16079032820D2A570401C6071F8BD4D
:100CF0000121384600F0D2F80028F9D1A078002868
:100D000004D00328F3D1E670A570F8BDE570032088
:100D1000A070607907498000143140188038C16F95
:100D20000548FFF773FBE560F8BDA6706571E560E7
:100D3000E670F8BDCC0000200801002010B5044981
:100D40004A69024202D04861FFF7B8FF10BD0000B7
:100D500000040140F8B500238DE001249C40A44626
:100D600022407DD04C68022C01D0122C0CD1DC0822
:100D7000A40027183C6A5D07ED0E0F26AE40B44371
:100D80000E69AE4026433E6205685E000324B4400F
:100D90000F79A543BF07BF0FB7402F4307604D68CA
:100DA000012D05D0022D03D0112D01D0122D0ED111
:100DB0008568CF68A543B7402F438760476865467D
:100DC000AF430D79ED06ED0F9D403D434560C5688D
:100DD000A5438C68B4402C43C4604C68E40049D5FA
:100DE000284CA56901263543A561A4699D083440B6
:100DF0000094254CAD002F19BC689D072E0F0F25C0
:100E0000B540AC430925ED06A84201D100250FE00D
:100E10001E4DA84201D101250AE01D4DA84201D175
:100E2000022505E01B4DA84201D1032500E0052560
:100E3000B5402543BD60184C25684E689543F603C0
:100E400000D51543256065684E689543B60300D507
:100E500015436560A5684E689543F60202D500E02B
:100E600008E01543A560E5684E689543B60200D5D5
:100E70001543E5605B1C0A681446DC4000D06CE753
:100E8000F8BD0000001002400000014000040048CE
:100E900000080048000C00480004014000690840B8
:100EA00000D001207047002A01D081617047816223
:100EB000704700000148006870470000F000002003
:100EC00002480168491C016070470000F0000020E2
:100ED00010B506480168102211430160002000F09F
:100EE00007F800F017F8002010BD000000200240B5
:100EF00010B5044600F042F97D21C900FFF7F0F873
:100F000000F068FC00222146501E00F029F8002065
:100F100010BD000008B50C488169012211438161B0
:100F200080691040002200901146501F00F018F810
:100F300000221146901E00F013F800221146501EA8
:100F400000F00EF808BD000000100240C106C90EF6
:100F500001208840014908607047000000E100E07E
:100F600010B501F057F810BDF8B505460068354CCE
:100F7000C00352D5E0690026C00007D4E16920040F
:100F80000143E161E1690140012600912E480168B9
:100F9000C90510D40168821511430160FFF78AFF6B
:100FA000074604E0FFF786FFC01B642824D82648C4
:100FB0000068C005F6D5206A03273F02384020D0DC
:100FC0006968394081421CD0206A226AB8430121F5
:100FD00009040A432262226A8A4322622062C0070D
:100FE0000FD0FFF767FF009008E0FFF763FF00995D
:100FF000411A1648814201D90320F8BD206A8007B2
:10100000F3D5206A6968B84308432062002E04D0F3
:10101000E169012000078143E1612878C00705D01C
:10102000206BA96880088000084320632878800628
:1010300005D5206B10218843E96808432063002010
:10104000F8BD00000010024000700040881300004E
:10105000F8B5054644480E460068C007C00FB042C8
:101060000AD24148016849084900314301600068DB
:10107000C007C00FB0425CD128783C4C800705D532
:101080006068F0218843A968084360602878C00739
:101090003FD06868012813D02168022813D089073F
:1010A000002946DA61688908890001436160FFF719
:1010B00001FF6968074601290DD0022917D024E0F5
:1010C00021688903ECE78901EAE7FFF7F3FEC11B1A
:1010D0002748814217D860680007800F0128F4D1A3
:1010E00017E0FFF7E7FEC11B214881420BD860687B
:1010F0000007800F0228F4D10BE0FFF7DBFEC11BD5
:101100001B48814201D90320F8BD60680007800FA9
:10111000F3D115480168C907C90FB1420BD901685D
:1011200049084900314301600068C007C00FB04260
:1011300001D00120F8BD2878400706D56068072156
:1011400009028843E9680843606000F02DF861688F
:10115000084A0906090F515CC84007490860002089
:10116000FFF7C6FE0020F8BD00200240001002403C
:101170008813000055320008EC0000200148006888
:1011800070470000EC0000200448054900684968E9
:10119000044A4905490F515CC8407047EC000020E3
:1011A000001002406532000810B512A30FCB88B0C2
:1011B0006C460FC413A30FCB0FC416494A680C200A
:1011C000134603401448042B0FD0082B0DD1930273
:1011D0001B0F6C46E45CC96A04AB0907090F595C34
:1011E000D20304D5FEF77CFF604308B010BD0B4866
:1011F0006043FAE702030405060708090A0B0C0D11
:101200000E0F10100102030405060708090A0B0C53
:101210000D0E0F100010024000127A0000093D0070
:10122000FEB504460078D04DC00747D06868000777
:10123000800F012807D068680007800F022809D1B5
:101240006868C00306D52868800337D56068002821
:101250007ED033E0012062680004012A11D08100B1
:10126000002A01D0052A10D02A6882432A60286803
:10127000884328606068002814D0FFF71BFE0646EC
:101280000CE0296801432960F4E72A680A432A60D0
:10129000F7E7FFF70FFE801B64286FD828688003EC
:1012A000F7D50BE0FFF706FE064604E0FFF702FE67
:1012B000801B6428F1D828688003F7D420780126A1
:1012C000800700283BDA68680007800F07D068684D
:1012D0000007800F022809D16868C00306D4286877
:1012E000800715D5E068012832D111E0E0680028B8
:1012F000286815D030432860FFF7DCFD074604E07E
:10130000FFF7D8FDC01B0228C7D828688007F7D58B
:101310002868F82188432169C900084328600EE045
:10132000400840002860FFF7C5FD074604E0FFF7CE
:10133000C1FDC01B0228B0D828688007F7D42078E8
:10134000000724D5E0690028686A10D0304300E027
:1013500008E16862FFF7AEFD074604E0FFF7AAFD6B
:10136000C01B022899D8686A8007F7D50FE04008AB
:1013700040006862FFF79EFD074605E09DE0FFF72D
:1013800099FDC01B022888D8686A8007F7D42078A6
:1013900004274007002860DA00200190E869C000B7
:1013A00008D4E969B8060143E961E969014001200F
:1013B000009101906D480168C90511D4016882153A
:1013C00011430160FFF776FD009005E0FFF772FD25
:1013D0000099401A642870D864480068C005F5D5A3
:1013E000A06801280AD0002801D0052810D0286A5A
:1013F000400840002862286AB84301E0286A304368
:101400002862A068002812D0FFF754FD00900AE07F
:10141000286A38432862F1E7FFF74CFD0099411A2A
:101420005348814249D8286A8007F5D50DE0FFF777
:1014300041FD009006E0FFF73DFD0099411A4C4840
:1014400081423AD8286A8007F5D40198002804D050
:10145000E969012000078143E9612078C00635D59C
:10146000606901280CD0401D686B23D03843686345
:10147000686B400840006863FFF71CFD064622E0E9
:10148000686B38436863686B30436863FFF712FD2D
:10149000064604E0FFF70EFD801B02285BD8686B50
:1014A0008007F7D5686BF8218843A169C900084314
:1014B00068630BE0B8436863F4E74CE0FFF7FAFCBD
:1014C000801B022847D8686B8007F7D4206A002861
:1014D00046D069680907890F022943D001263606DC
:1014E0000228286805D0B0432860FFF7E3FC0446D3
:1014F00033E0B0432860FFF7DDFC074604E0FFF768
:10150000D9FCC01B022826D828688001F7D4E86AD5
:10151000E16A000900010843E862616AA06A0843C1
:1015200069683D221204914308436860286830438B
:101530002860FFF7BFFC044604E0FFF7BBFC001B7C
:10154000022808D828688001F7D509E0FFF7B2FC27
:10155000001B022801D90320FEBD28688001F5D4B4
:101560000020FEBD0120FEBD0010024000700040C2
:101570008813000070474030407F7047F8B5040082
:1015800007D0002625464035A662687F002802D095
:1015900005E00120F8BD2E77204600F04BF802232D
:1015A0006B77206801684022914301600721E06861
:1015B0000902884201D9002201E0012212030F270B
:1015C0003F02B84202D0884200D0A662276B002FAB
:1015D00005D1884201D9236301E001202063A1687D
:1015E0006068636908432169194308430123A169BD
:1015F0005B0219400843E1690843216A0843A16A74
:10160000084321680860616B606AA36908431B0C8A
:101610000427E1683B4019430843216810434860B0
:101620002068C1697A029143C1612666012068770A
:101630000020F8BD70B506460068194986B088429A
:101640002CD11848826981140A438261806900257F
:1016500008400590A02000900220019003200390F4
:101660000920029569460495C006FFF773FB0F4CED
:101670000D4820601020A560606025616561A5614E
:101680008020E561E0602046FFF7FEF9002803D0E6
:10169000712107A001F048FA7465666206B070BD5A
:1016A000003001400010024030000240840200205F
:1016B0002E2E2F5372632F7370692E63000000006B
:1016C000F8B5064604464036307F0027012807D08B
:1016D00001203077707F0025012803D0022758E0D1
:1016E0000220F8BD002957D0002A55D0032070777A
:1016F0002566A163A287E28725642565E564B58038
:10170000F5800122D203A1685010914203D12168D3
:101710000A6802430A60626D2349D162626D2349FF
:101720009162626D22491163616D4D6321684A685F
:1017300082434A600722E1681202914210D8616D2B
:1017400001224969920291420AD1E18FC9072168B9
:101750004A6823D002434A60E08F4008401CE0877B
:10176000E38F2268A16B0C32606DFFF7B9F9206836
:101770000168490603D401684022114301602068D2
:1017800041682022114341602068416802221143D0
:10179000416035773846F8BD0127FAE782434A6051
:1017A000E08F4008DBE700008F2000089920000848
:1017B0006D20000870477047042204490428086916
:1017C00002D09043086170471043FBE700E000E05F
:1017D00070470000094910B5401E884201D9012018
:1017E00010BD074C60610321081F00F013FC0020AE
:1017F000A06107202061002010BD0000FFFFFF0056
:1018000000E000E010B5FFF7E3FF10BD7047704740
:1018100070B5040005D025462035687F002802D029
:1018200006E0012070BD00202877204600F00AF86D
:1018300002206877211D206800F0C0FE0120687733
:10184000002070BD08B500680649884208D10648E6
:101850008269012149040A4382618069084000903D
:1018600008BD000000440140001002400268D36837
:1018700001210B43D360006802680A430260002024
:101880007047704770B50446006801690025C94378
:101890008907002915DBC168C943890711D4E91EEE
:1018A000016101202077206880698007204602D0EE
:1018B000FFF7E7FF04E000F096F8204600F094F808
:1018C000257720680169C943490717D4C168C9430E
:1018D000490713D40421C9430161022020772068FD
:1018E00080698005800F204602D0FFF7CAFF04E020
:1018F00000F079F8204600F077F825772068016934
:10190000C943090716D4C168C943090712D408217D
:10191000C9430161042020772068C0698007204600
:1019200002D0FFF7AEFF04E000F05DF8204600F0C3
:101930005BF8257720680169C943C90617D4C168D7
:10194000C943C90613D41021C94301610820207777
:101950002068C0698005800F204602D0FFF791FF04
:1019600004E000F040F8204600F03EF825772068BB
:101970000169C943C90708D1C168C943C90704D16E
:10198000891E0161204600F031F820680169C943D1
:10199000090609D4C168C943090605D48021C94391
:1019A00001612046FFF732FF20680169C9434906FB
:1019B00009D4C168C943490605D44021C94301611E
:1019C000204600F033F820680169C943890609D42C
:1019D000C168C943890605D42021C9430161204655
:1019E000FFF715FF70BD7047704700000B49884234
:1019F0000DD10B48C178002909D10A4AC16891422A
:101A000003D3094A927D022A02D0491CC160704763
:101A10000021C1600121C17081707047C80200209F
:101A2000CC00002060EA000008010020704770B57B
:101A3000044660300546407A21280FD1206881682D
:101A400009060BD58168802291438160206E0028B1
:101A500001D0FEF791FF204600F0CAFEA87A2228A6
:101A60000FD12068816849060BD5816840229143D7
:101A70008160606E002801D0FEF77EFF204600F0F6
:101A80009BFE002070BD7047F8B503680446D96915
:101A900018680D072D0F07D18A0605D5820603D5D4
:101AA000204600F0AEFEF8BD9A68002D64D0D50740
:101AB000ED0FFF26213606402E435DD0CE0706D01F
:101AC000C60504D501261E62E36E3343E3668F0725
:101AD00002230426002F06DAD70704D027683B62CA
:101AE000E76E3743E7664F0706D5D20704D0226872
:101AF0001662E26E1A43E2660A0709D52022024006
:101B00002A4305D0236808221A62E36E1343E36672
:101B1000E26E002AC7D0890604D5800602D5204689
:101B200000F06FFEE06E000703D420688068400676
:101B30001CD5204600F040FE20688168490611D57A
:101B40008168402291438160606E00280AD012496A
:101B50004163606EFEF726FF0028A4D0606E416BE3
:101B60008847F8BD2046FFF78EFFF8BD2046FFF7F7
:101B70008AFF0020E066F8BD0A0605D5020603D5F7
:101B8000204600F005FFF8BD4906FCD54006FAD511
:101B9000204600F020FEF8BD1127000870B50400B3
:101BA00005D025466035687A002802D006E001207D
:101BB00070BD00202872204600F026F824206872AC
:101BC00020680168490849000160204600F056FE7F
:101BD0000128EDD0606A002802D0204600F02AFDDE
:101BE000206841680122D2029143416020688168E7
:101BF000082291438160206801680122114301603D
:101C0000204600F07CFD70BD70B506460068214995
:101C100086B088423BD120488269012189030A436A
:101C200082618069002508400590032040020090F1
:101C300002200190032003900120049009200295C6
:101C40006946C006FFF786F81448154C21C4256084
:101C5000A560E56025618020656160601048083CF2
:101C6000FEF712FF002803D06F210EA000F05CFFEA
:101C700010480168021511430160746600220121B9
:101C80001B206662FFF76CF91B20FFF75FF906B0B7
:101C900070BD0000003801400010024058000240B2
:101CA000780300202E2E2F5372632F757361727488
:101CB0002E63000000000140F8B50546044660357B
:101CC000A87A202841D100290BD0002A09D001236D
:101CD000A0681B03984206D12069002803D1C807D9
:101CE00001D00120F8BD287A01282ED001202872C9
:101CF0005820616502530026E6662220A872616EB4
:101D000013488862616E1348C862616E12480863A6
:101D1000606E13464663676D21683A462431606EF3
:101D2000FEF7DEFE2E7220680168FF2201321143A9
:101D30000160206881680122114381602068816808
:101D40004022114381600020F8BD0220F8BD000050
:101D50006F270008AF270008252700087047704745
:101D6000FFB5064604466036707A83B00D462028DB
:101D700058D1002D0CD00598002809D00120A16869
:101D80000003814207D12069002804D1E80702D06E
:101D9000012007B0F0BD307A012843D00120307215
:101DA0000020E06621207072FFF784F8019027463A
:101DB0004037059838820598788218E0788A401E66
:101DC000788206980090002280212046019B00F036
:101DD00012FE002818D10120A1680003814202D11F
:101DE0002069002812D02168287808856D1C788A1F
:101DF0000028E3D106980090002240212046019B54
:101E000000F0F9FD002808D00320C2E728882168E7
:101E1000C005C00D0885AD1CE9E7202070720020C8
:101E20003072B6E70220B4E77047FEE710B504460B
:101E300000780022302804D16078FEF7DFFC782893
:101E400002D0FF20000610BD022305E0FEF74EFB86
:101E5000110142185B1CDBB2E05C014630390929F4
:101E6000F4D931390529F1D920310529EED90448B1
:101E7000110642601002000C090A084310BD000060
:101E8000C400002008B50C4841690122114341619A
:101E9000406910400022009011460A20FFF760F8C8
:101EA0000A20FFF753F8002211460B20FFF758F8DD
:101EB0000B20FFF74BF808BD0010024030B5134867
:101EC00087B04269012149040A43426140690925FA
:101ED0000840ED06059001225C212846FEF7E3FF4D
:101EE000032000900A480124019069460294284684
:101EF000FEF730FF00215C200291039100900194D5
:101F000069462846FEF726FF07B030BD00100240A4
:101F10000000211010B5124810490160FF21053161
:101F2000416007221202C260002181600222026128
:101F30000122426152028261016210224162C26149
:101F4000816207220163C2624163FFF717FB002829
:101F500003D0492103A000F0E7FD10BD003001408F
:101F6000200200202E2E2F5372632F7370692E6370
:101F70000000000010B50B48094901601F214160B5
:101F8000002181600161084A4161C2608161FFF7FF
:101F90003FFC002803D03E2104A000F0C5FD10BD89
:101FA00000440140C80200200F2700002E2E2F53AE
:101FB00072632F74696D2E630000000010B50F4826
:101FC0000D490160E1214902416000218160C16049
:101FD000016181610C22C161426101622021416283
:101FE0000902C163FFF7DAFD002803D0472104A0EE
:101FF00000F09AFD10BD00000038014008030020E9
:102000002E2E2F5372632F75736172742E6300002E
:10201000704700008307FF22DB0E9A408907090EF4
:10202000994000280BDA0007000F08388308084899
:102030009B001818C36993430B43C361704783081F
:1020400004489B001B1818689043084318607047A9
:1020500000ED00E000E400E070470000024980006D
:102060004018006870470000003C000810B5406A46
:1020700001684A68920892004A60016E102211437A
:10208000016601225D210A54FFF774FA10BD10B5F4
:10209000406AFFF790FB10BD38B50546446AFEF76D
:1020A00009FF024628680068800625D42068416838
:1020B0002025A9434160206841680223994341607B
:1020C0006421204600F01CF8002802D0206E28432E
:1020D0002066A0680021002803D12068C2688068BB
:1020E0000090E18701215D200155206E002803D07A
:1020F0002046FFF73FFA38BD2046FFF75BFB38BDAF
:10210000F8B50F460B4615460092032104460022FF
:10211000C90200F01BF82026002812D13B460022FD
:1021200080212046009500F05CF8002809D10321A9
:102130003B46002249022046009500F007F800289F
:1021400003D0206E304320660320F8BDF8B51D464D
:1021500017460E4604463DE0032149028E4205D152
:10216000002F03D1017B684601700078681C31D0D4
:10217000002D05D0FEF79EFE0699401AA84229D3ED
:1021800020684168E022914341606068C11FFD39C9
:102190000CD10121A068C903884202D049118842AC
:1021A00004D1206801684022914301600120A16AA6
:1021B0004003814207D121680A6882430A6021688E
:1021C0000A6802430A6001204034607700202077CB
:1021D0000320F8BD206881683140B942BCD100209D
:1021E000F8BDF8B51D4617460E46044633E0681C98
:1021F00031D0002D05D0FEF75DFE0699401AA842A9
:1022000029D320684168E022914341606068C11F82
:10221000FD390CD10121A068C903884202D04911BF
:10222000884204D120680168402291430160012066
:10223000A16A4003814207D121680A6882430A608B
:1022400021680A6802430A60012040346077002058
:1022500020770320F8BD206881683046884304D089
:102260000020B842C3D10020F8BD0120F9E7704733
:1022700010B509A000F05AFC08A000F057FC11A00E
:1022800000F054FC19A000F051FC22A000F04EFC1C
:102290002AA000F04BFC10BD0D0A0000205F5F5F1C
:1022A0005F5F5F5F5F5F5F5F5F5F5F5F5F5F5F5F3E
:1022B0005F5F5F5F5F5F5F5F5F5F5F5F5F5F5F0D80
:1022C0000A0000007C202020202020202020202028
:1022D00020202020202020202020202020202020FE
:1022E000202020202020207C0D0A00007C2020209F
:1022F00020202020202020202020205741524E49FD
:102300004E47202020202020202020202020207C1C
:102310000D0A00007C5F5F5F5F5F5F5F5F5F5F5F15
:102320005F5F5F5F5F5F5F5F5F5F5F5F5F5F5F5FBD
:102330005F5F5F5F5F5F5F7C0D0A00000D0ABCECB2
:10234000B2E2B5BDCEB4C5E4D6C3D3C3BBA7636FF9
:102350006C6F72BBF2CAFDBEDDB6AACAA7A3ACBF42
:10236000C9C4DCD0E8D2AAD6D8D0C2C5E4D6C363EB
:102370006F6C6F720D0A000070B509A000F0D6FBFB
:1023800000240B4E0B4D04E0315D0BA000F0CEFBA2
:10239000641C28788442F7DB08A000F0C7FB70BDFE
:1023A000BDD3CAD5B5BDCAFDBEDD5B2000000000AF
:1023B00020010020D000002025630000205DC7EB35
:1023C000BCECB2E9CAFDBEDDCAC7B7F1D5FDC8B7DE
:1023D0000D0A000010B58189044600688822491E54
:1023E000FDF7B7FE0120A07310BD000010B5044634
:1023F00041810C2041430B48491C0246A1816132B6
:1024000005C4002222704018FE222038C277012025
:10241000A071083C2046FFF7DDFF204600F02EF8B3
:1024200010BD000000000020F0B50C2359430068E7
:10243000C91C4018002388258E26E8270021940710
:10244000A40F06D0012C06D0022C06D0032C08D1F4
:1024500005E0057005E0067003E0077001E0EE247A
:102460000470491C9208C9B2401E0429E7D35B1CC2
:10247000DBB20830032BE1D3F0BD000010B50446F9
:102480000D48FFF778F8012815D1A07B012806D167
:10249000A28921686068FDF74AFE0020A073A28926
:1024A00005486168FFF70CF9002804D0FF210E31C0
:1024B00002A000F039FB10BD200200202E2E5C533C
:1024C00072635C575332382E6300000010B5FEF77C
:1024D000F7FCFFF797F910BD70B594B000241020F9
:1024E000099402250490032001260095C004039658
:1024F0000A9008950B946846FEF792FE002800D0DB
:10250000FEE707200C900E9401210D950F940CA866
:10251000FEF79EFD002800D0FEE710A8109612944A
:10252000FEF722FD002800D0FEE7FEF727FE7D2102
:10253000C900FDF7D5FDFFF74DF90420FFF73CF981
:1025400000221146501EFEF70BFD14B070BD0000B6
:10255000134801680122114301604168114A11408A
:1025600041600168104A1140016001680122920433
:102570009143016041683F22120491434160C16A66
:1025800009090901C162016BFF2214329143016301
:10259000416B490849004163002181607047000098
:1025A000001002400CB8FF08FFFFF6FE10B502480D
:1025B000FFF768F910BD0000C802002070B502687E
:1025C000174B184E984201D0B04203D17024A24359
:1025D0004C682243144C154D984208D0B04206D0A6
:1025E000134EB04203D0A04201D0A84204D103262A
:1025F0003602B243CE6832438026B2434E6932433C
:1026000002608A68C2620A688262984203D0A0426D
:1026100001D0A84201D1096901630121416170BD66
:10262000002C0140000400400044014000480140EB
:102630000020004010B5818CC90707D001684A68A6
:1026400001235B049A43836A1A434A60818C890799
:1026500007D501684A6801231B049A43C36A1A43D9
:102660004A60818C490707D501684A6801239B04A9
:102670009A43036B1A434A60818C090707D50168A6
:102680004A680123DB039A43436B1A434A60818CF7
:10269000C90607D50268916801231B039943836B20
:1026A00019439160818C890607D501688A680123E6
:1026B0005B039A43C36B1A438A60818C490612D527
:1026C00003685A6801210905046C8A4322435A6051
:1026D000026C8A4207D10268516803235B05994363
:1026E000436C19435160818C090607D501684A681B
:1026F0000123DB04806C9A4302434A6010BD002131
:10270000C1662022603042728272017208467047B0
:1027100010B5406A0022014640314A834A82FFF7E1
:10272000B2F910BD70B5446A25466035687A002656
:10273000212808D120688068000604D5522006535D
:10274000204600F055F8A87A222808D12068806831
:10275000400604D55A200653204600F02DF8E06EBE
:1027600010210843E0662046FFF78DF970BD10B5D3
:1027700001460968406A0968890615D400225A2171
:102780000A5201680A68FF2301339A430A6001680C
:102790008A68520852008A6001688A6840239A4316
:1027A0008A6020226A210A54FFF7D8FA10BD10B5BA
:1027B000406AFFF7D4FA10BD01680A68FF2321338D
:1027C0009A430A6001688A68520852008A60202190
:1027D00060308172704710B501680A6840239A43DF
:1027E0000A60202269210A54FFF71EFB002010BD59
:1027F00001680A68C0239A430A6020216030417250
:10280000704770B50246403203466033948B9D7A20
:102810000168222D05D088690822104388610220B2
:1028200070BD898C012685683603B54202D10569E1
:10283000002D0BD02140446D651C45652170518BE6
:10284000491E0904090C518307D015E0456D21404C
:102850002980416D891C4165F1E701680A68FF2400
:102860002134A2430A6001688A68520852008A60D3
:1028700020219972FFF772FA002070BDF8B5044666
:102880002369A268E6691A43636910213343002073
:1028900026681A4333680546394F3B40134333607B
:1028A00023685A6803263603B243E66832435A6007
:1028B000236AA26926681A43B3680B273F02BB4309
:1028C0001343B3602F4A126B9207920F06D0012A6E
:1028D00008D0022A08D0032A07D101E0002104E031
:1028E000022102E0042100E008210122E369D20371
:1028F000934224D100290CD002290DD0042913D0F1
:10290000082917D00125010909010007400F0843D4
:1029100032E0FEF739FC09E061681B4A480880187C
:10292000FDF7DEFB80B2EEE7FEF73EFC616840009B
:102930004A08F4E76168012248081204EFE7002919
:1029400008D0022909D004290BD008290ED001256E
:102950002846F8BDFEF718FC05E061680B4A4808F8
:1029600006E0FEF721FC61684A0801E0616848085A
:102970008018FDF7B5FB80B22168C860E8E7000069
:10298000F369FFFF001002400024F40000127A00F7
:102990006921095C212901D002207047024640329A
:1029A000518A002912D0012381681B03994202D168
:1029B0000169002915D0C16C4B1CC36400680978FB
:1029C0000185508A401E50820020704701680A68C5
:1029D00080239A430A600068016840221143016025
:1029E000F2E7C16C03680988C905C90D1985C16C76
:1029F000891CC164E5E7FFB581B017460E46044661
:102A00000A9D1DE0681C1BD0002D05D0FEF752FA70
:102A10000499401AA84213D920680168FF22A13204
:102A20009143016020688168490849008160202045
:102A300060346072A07200202072032005B0F0BDE7
:102A40002068C1693046884304D00020B842D9D0FC
:102A50000020F3E70120F9E710B50E48FFF714F85E
:102A60000C480D490068884212D1C169C943C906A2
:102A70000ED4102101620748FEF7D9FF074800680D
:102A80004068FF21081A06490870064901200870AD
:102A900010BD00000803002000380140780300202A
:102AA000D0000020CC00002010B5044800F03EF813
:102AB0000248513000F03AF810BD00005C310008C7
:102AC000F0B58BB00E46074614216846FDF748FB6B
:102AD000144C00206D46820011190968401CC0B2D8
:102AE000A9500528F7D3B8002E50FEF7D5F80020DE
:102AF0000121069008910990079409A906A8FEF7FC
:102B000033F80026B0002A58011900230220FEF7EE
:102B100085F8761CF6B2052EF4D3FEF775F80BB0E7
:102B2000F0BD0000003C0008FEE700000FB410B547
:102B300003A9044B044A029800F018F810BC08BC22
:102B400004B0184711300008F400002002E008C863
:102B5000121F08C1002AFAD170477047002001E017
:102B600001C1121F002AFBD170470000FFB591B0D0
:102B70000F460546002606E025280AD0149A139928
:102B800090476D1C761C28780028F5D1304615B08A
:102B9000F0BD002400940121F34A029400E00443B4
:102BA0006D1C2B780846203B98401042F7D12878BE
:102BB0002A280ED0022128780246303A092A15D850
:102BC000009A0A235A43303A80180C436D1C009037
:102BD000F1E701CF0090002805DA0120400304430B
:102BE000009840420090022004436D1C28782E2853
:102BF00015D10420044368786D1C2A280AD101CF1E
:102C00006D1C02900BE002990A22514330394018A2
:102C10006D1C02902878014630390929F3D92878AB
:102C20006C2810D006DC4C281AD068280ED06A28F0
:102C300017D104E0742813D07A2812D110E00120B3
:102C4000400504430CE00121090501E003210905C9
:102C50000C436978814203D10120000524186D1CC2
:102C60006D1C287803906E281ED00CDC632831D0B0
:102C700004DC00288AD0582811D1B2E064287BD027
:102C800069280CD178E073282DD004DC6F2870D02F
:102C9000702804D1A7E075286CD078286BD0149ADE
:102CA00013999047761C62E06002400F022807D01B
:102CB00003280AD0042838680AD006603F1D56E071
:102CC0003868F11706604160F8E738680680F5E774
:102CD0000670F3E73878694608740020487404A841
:102CE0000390012003E0386803900020C0433F1D9B
:102CF00061070FD5002101E00199491C029A019159
:102D0000914213DA8142F7DB019A0399895C002929
:102D1000F2D10BE0002101E00199491C01918142AF
:102D2000FADB019A0399895C0029F5D10199009891
:102D3000139A401A00902146149B00F03BF9019928
:102D40008019461807E0039803990078491C0391FD
:102D5000149A139990470198401E0190401CF2D19B
:102D60002146149B139A009800F014F986196D1CE3
:102D700009E741E033E034E00A20002104900591A6
:102D80006002410F022905D001CFC21794460329E2
:102D900005D007E0FF1DFF08FF0003CF06E000B2EB
:102DA000C2179446042902D140B2C1178C460022B2
:102DB0006146944506DA0A460021404291418C461C
:102DC0002D2102E0210504D52B216A46117601212F
:102DD00003E0E10701D02021F7E7019154E00A2048
:102DE0000BE0102009E0102004900021042004438F
:102DF00008200591029003E008200021059104902D
:102E00006002410F022905D001CF00229446032918
:102E100006D006E0FF1DFF08FF0003CF8C4603E04D
:102E200080B2042900D1C0B20021019121072BD525
:102E30000399702906D0049A1021059B4A401A4331
:102E400005D00EE040216A461176012108E0614676
:102E5000014306D030216A4611760399517602214A
:102E60000191049A0821059B4A401A430CD16146FE
:102E7000014301D1610707D530216A46117601214E
:102E800001910299491E02910399582904D037A152
:102E900003910FA90F910DE039A1F9E76146059B58
:102EA000049AFDF711FA039B8C469B5C0F9A521E05
:102EB0000F92137061460143F0D10F9807A9081AC9
:102EC00020300390600704D5012000048443029859
:102ED00001E0012002900399884201DD401A00E0E0
:102EE000002041180290019809180098401A00909B
:102EF000E00306D42146149B139A009800F05AF878
:102F000086190020049008E006A9085C149A139919
:102F100090470498401C761C049001998842F3DB8A
:102F2000E0030CD52146149B139A009800F042F858
:102F3000861904E0149A302013999047761C029960
:102F4000481E02900029F5DC08E00F980F990078E0
:102F5000491C0F91149A13999047761C0399481EA7
:102F600003900029F1DCFBE60928010030313233FF
:102F700034353637383961626364656600000000B5
:102F8000303132333435363738394142434445469F
:102F900000000000F8B5044600251E4617468804C8
:102FA00004D405E039462020B0476D1C641EF9D5D5
:102FB0002846F8BDFFB50446002581B01E46C8036B
:102FC00001D5302700E02027880404D505E03846E5
:102FD0000399B0476D1C641EF9D5284605B0F0BDB5
:102FE000F7B500241746054601260DE0E1B2284654
:102FF000019AFFF719FAAE732846FFF73FFA3846F1
:10300000FDF7A3FD641CA4B26889A042EED8FEBD02
:1030100013B5044B012269460348FEF7A1FE009850
:103020001CBD0000FFFF000008030020FDF750FF5B
:10303000FFF752FAFEF742FFFEF724FFFEF76AFFA2
:1030400008212E48FFF7D2F9FEF794FFFEF7B6FFEE
:10305000002211460520FDF783FF0520FDF776FFCE
:10306000002211461520FDF77BFF1520FDF76EFFAE
:103070002348FEF7FBFB2348006801681022114338
:103080000160FFF711FD00201F4BFF241F4D24029C
:103090008200D1180968A950491C19D00021401C90
:1030A000C0B20328F4D3002901D0FFF7E1F8174C90
:1030B000143C00F02DF8A07800280CD0022811D084
:1030C000032812D00A2200210C48FFF789FFF0E7FD
:1030D000AC500121E3E760798000401980380A2272
:1030E000C16FF1E70A22A168EEE72169E068814239
:1030F000DFD02061FDF7B4F9DBE70000F800002025
:10310000C802002008030020003C0008E000002066
:1031100010B50F4C2078012813D16078002807D013
:103120000C48FDF7F5F9002022790146094B04E02F
:1031300001206070F7E71954401C9042FBDB2171BD
:103140002170FF2203490448FEF7B6FD10BD0000C0
:10315000CC00002020010020080300202F2A204955
:103160006E697420456C656374726F6E6963204488
:10317000657369676E2053747564696F20202A2F08
:1031800020200D0A2F2A204E69676874204C696739
:1031900068742056322E302020202020202020202D
:1031A0002020202020202A2F20200D0A002F2A2036
:1031B000436F7079726967687428432920496E6982
:1031C0007444657620323031392D32303239202A3C
:1031D0002F20200D0A2F2A20496E707574202F6829
:1031E000656C702067657420616C6C207573657206
:1031F00020636D642020202A2F20200D0A00202F1C
:1032000068656C702020C3FCC1EECFD4CABEB0EF9D
:10321000D6FAD0C5CFA20D0A202F636F6C6F722033
:10322000C3FCC1EEB2E9BFB4BBF2B8C4B1E4C8FD9F
:10323000B4CEB4A5C3FEB5C4D1D5C9AB0D0A202FF9
:10324000736176652020C3FCC1EEB1A3B4E6B2D9A8
:10325000D7F70D0A00000000000000000001020383
:103260000406070809000000000102030400000032
:103270009032000800000020F80000004C2B0008ED
:1032800088330008F8000020E80600005C2B0008E6
:1032900088000000000000000000000000000000A6
:1032A000000000000000000000000000000000001E
:1032B000000000000000000000000000000000000E
:1032C00000000000000000000000000000000000FE
:1032D00000000000000000000000000000000000EE
:1032E00000000000000000000000000000000000DE
:1032F0000088000000000000000000000000000046
:1033000000000000000000000000000000000000BD
:1033100000000000000000000000000000000000AD
:10332000000000000000000000000000000000009D
:10333000000000000000000000000000000000008D
:10334000000000000000000000000000000000007D
:10335000000000000000000000000000000001016B
:10336000000000000000000000000000000000005D
:1033700000FF00000000FF00FF00000000127A00C4
:08338000000000000000000045
:04000005080000B13E
:00000001FF
